:100000000C9452060C947A060C947A060C94DB0F2E
:100010000C947A060C94F30F0C947A060C947A06DE
:100020000C947A060C947A060C947A060C94D52FCC
:100030000C947A060C947A060C947A060C947A0640
:100040000C9421330C947A060C9485100C947A0647
:100050000C947A060C949B0F0C947A060C947A06F6
:100060000C947A060C947A06B711BD11C211CC110A
:10007000E111EC11F911051211121D1222122812B0
:1000800031123A12471277167E168916891689168A
:10009000C816C8169316C816A016A016B116B11623
:1000A000BC160B21102106210B2110210B21102140
:1000B000B021E8215622B2220623062306238823F4
:1000C00088237C247C247625D4252E268426076349
:1000D0004236B79BD8A71A39685618AEBAAB558CBA
:1000E0001D3CB7CC5763BD6DEDFD753EF617723103
:1000F000BF000000803F05A84CCDB2D44EB93836C1
:10010000A9020C50B9918688083CA6AAAA2ABE006A
:100110000000803F0664EC1B3C04BC163E3BE5B986
:100120003CC93C37C29E5A3D660498083EEA69AA1B
:10013000AA3E000000803F0000010002000300040E
:1001400000050405070230840001FF02FF00FE01E4
:1001500001FE00FF02FF0100000005000E001B0071
:100160002E004D007B00C3003201DD01E402790462
:10017000E806A80A6F1054190000000800110019C1
:100180000022002A0033003B0044004C0055005D73
:100190000066006E0077FF7FFF7FFF0F9005AA02C9
:1001A0007401D90085005600390026001A0013009A
:1001B0000D000900070005000800090009000A00F9
:1001C0000A000B000C000C000D000E000F000F00C9
:1001D000100011001200130015001600170018007F
:1001E0001A001C001D001F0021002300250027000D
:1001F00029002C002E003100340037003A003E0068
:100200004100450049004E00520057005C0062006A
:1002100068006E0075007B0083008B0093009C00DB
:10022000A500AF00B900C400D000DC00E900F70071
:1002300006011501260137014A015D01720188019D
:100240009F01B801D201EE010B022A024B026E029D
:100250009302BA02E40210033F037003A403DC0319
:10026000170455049704DD0427057505C805200605
:100270007D06E0064907B8072D08A9082D09B90928
:100280004D0AEA0A900B400CFA0CC00D910E6F0F4C
:100290005A1053115B1272139A14D4152017801838
:1002A000F519801B231DDE1EB420A622B524E426EA
:1002B0003429A72B402E0031000000000000000070
:1002C000000000000000000001020304050607080A
:1002D000090A0B0C0D0E0F10FFFEFDFCFBFAF9F8DE
:1002E000F7F6F5F4F3F2F1F001010202030304045E
:1002F00005050606070708080101020304040506B0
:10030000070708090A0A0B0C010302040305040687
:10031000050706080709080AFFFDFEFCFDFBFCFABD
:10032000FBF9FAF8F9F7F8F6FFFFFFFFFDFDFEFE17
:10033000FFFFFFFFFDFDFEFE0201030204050601B3
:100340000201030204050601FFFEFFFCFEFFFCFFA5
:10035000FCFEFDFEFFFDFEFF01020302040302039B
:10036000010302040103020101020302FF06050466
:100370000101FFFE01010401040104010301040164
:100380000201030104010401010104040101040448
:10039000030306060202050501010302020403032A
:1003A0000504040605050706010203020102030213
:1003B00001020302010203020C0B0A100B090F0ACF
:1003C0000810070F06100504010001000100550088
:1003D0000300010055000300010055010100550113
:1003E0000100550501000100000C1925313C475161
:1003F0005A626A70757A7D7E7F7E7D7A75706A62D8
:100400005A51473C3125190C00F4E7DBCFC4B9AF92
:10041000A69E96908B868382818283868B90969E01
:10042000A6AFB9C4CFDBE7F4000810182028303895
:1004300040474F575F676F777F776F675F574F47CB
:10044000403830282018100800F8F0E8E0D8D0C86C
:10045000C0B9B1A9A199918981899199A1A9B1B98D
:10046000C0C8D0D8E0E8F0F87F7B77736F6B676324
:100470005F5B57534F4B4743403C3834302C282464
:10048000201C1814100C080400FCF8F4F0ECE8E44C
:10049000E0DCD8D4D0CCC8C4C0BDB9B5B1ADA9A535
:1004A000A19D9995918D89858181818181828282A9
:1004B00082828283838383848484858586868787FA
:1004C00088898A8A8B8C8D8F9091939597999B9D23
:1004D000A0A3A6A9ADB1B6BBC0C6CCD3DBE3ECF5F7
:1004E000000C18263545576B001930465866707653
:1004F0007876726C655F59565556595F656C7276A1
:10050000787670665846301900E7D0BAA89A908A73
:10051000888A8E949BA1A7AAABAAA7A19B948E8A36
:10052000888A909AA8BAD0E77F7F7F7F8181818176
:1005300081818181818181818181818181818181AB
:10054000818181818181818181818181818181819B
:10055000818181818181818181818181818181818B
:1005600081818181818181817F7F7F7F7F7F7F7F8B
:100570007F7F7F7F7F7F7F7F81818181818181817B
:10058000818181818181818181818181818181815B
:10059000818181818181818181818181818181814B
:1005A00081818181818181817F7F7F7F7F7F7F7F4B
:1005B0007F7F7F7F7F7F7F7F7F7F7F7F7F7F7F7F4B
:1005C0007F7F7F7F7F7F7F7F81818181818181812B
:1005D000818181818181818181818181818181810B
:1005E00081818181818181817F7F7F7F7F7F7F7F0B
:1005F0007F7F7F7F7F7F7F7F7F7F7F7F7F7F7F7F0B
:100600007F7F7F7F7F7F7F7F7F7F7F7F7F7F7F7FFA
:100610007F7F7F7F7F7F7F7F8181818181818181DA
:1006200081818181818181817F7F7F7F7F7F7F7FCA
:100630007F7F7F7F7F7F7F7F7F7F7F7F7F7F7F7FCA
:100640007F7F7F7F7F7F7F7F7F7F7F7F7F7F7F7FBA
:100650007F7F7F7F7F7F7F7F7F7F7F7F7F7F7F7FAA
:100660007F7F7F7F818181810004080C1014181C1A
:100670002024282C3034383C4043474B4F53575BA1
:100680005F63676B6F73777B7F7F7F7F7F7F7F7F0A
:100690007F7F7F7F7F7F7F7F7F7F7F7F7F7F7F7F6A
:1006A0007F7F7F7F7F7F7F7F7F7F7F7F7F7F7F7F5A
:1006B0007F7F7F7F7F7F7F7F7F7F7F7F7F7F7F7F4A
:1006C0007F7F7F7F7F7F7F7F7F7B77736F6B6763AA
:1006D0005F5B57534F4B4743403C3834302C282402
:1006E000201C1814100C08047F7F7F7F7F7F7F7F82
:1006F0007F7F7F7F7F7F7F7F8181818181818181FA
:1007000081818181818181817F7F7F7F7F7F7F7FE9
:1007100081818181818181817F7F7F7F7F7F7F7FD9
:1007200081818181818181817F7F7F7F7F7F7F7FC9
:1007300081818181818181817F7F7F7F7F7F7F7FB9
:1007400081818181818181817F7F7F7F7F7F7F7FA9
:100750007F7F7F7F7F7F7F7F7F7F7F7F7F7F7F7FA9
:10076000818181818181818198B8F25BDD26ECEB0A
:10077000532F16B79198E41B4F192290D31424E2FB
:1007800084B6A1383FA55E4E87E53192E718F70B96
:10079000B041F6C89B74693ABD94815FB95836FE82
:1007A000536DDB3B28B354E47F7F7F7F7F7F7F7F68
:1007B0007F7F7F7F7F7F7F7F7F7F7F7F7F7F7F7F49
:1007C0007F7F7F7F7F7F7F7F7F7F7F7F7F7F7F7F39
:1007D0007F7F7F7F7F7F7F7F7F7F7F7F7F7F7F7F29
:1007E0007F7F7F7F7F7F7F7F0605041005030F04D7
:1007F0000210010F000E000001000100010055155C
:100800000300010055150300010055550100555521
:100810000100555502000400000101020203040416
:1008200005050607070809090A0B0B0C0D0D0E0F2D
:100830000F101112121314141516171718191A1B6A
:100840001B1C1D1E1F1F202122232425252627288F
:10085000292A2B2C2D2E2F2F303132333435363799
:1008600038393A3B3D3E3F40414243444546484982
:100870004A4B4C4D4F50515253555657595A5B5C49
:100880005E5F606263646667696A6B6D6E707173E8
:10089000747677797A7C7D7F0FF08080808080808D
:1008A000808080808080808080807F7F7F7F7F7F4E
:1008B0007F7F7F7F7F7F7F7F7F7F4B595C5C5C5B2F
:1008C0005A59F5EBE8E7E61C5155FEF2F0EFEFEF71
:1008D000EFEF8982808081BBF0F6737E51FE8697B0
:1008E000A6BD525D686DF09C80952E3A464DCFDED8
:1008F000ECF90714212BACBBCADB6A7F7D7C7B7AC9
:100900007979DCD1D2D2D2D3D3D3D4D4D5D5D5D65C
:10091000D6D6D7D7D7D8D8D8D9DD80878F979FA7F5
:10092000AFB7BFC7CFD7DFE7EFF7FF070F171F2717
:100930002F373F474F575F676F7707141F2C374399
:100940004E59646E777F45A6E108DFA7C3D8D2CEA3
:1009500093AFBDC0C6D0DCE6F0FB808594A7BBD0CA
:10096000E4F90E2216E6F7091D2FE3F1021629FB22
:10097000EAFB0F22364A5D63212D40515D666F7799
:100980007E7904060C141D263033C6CAD1DBE5EF90
:10099000FA00808188909AA4AFC0E6C3A4928680B2
:1009A0008B89AAA4D6C600E81A0015191A1F393275
:1009B0005C4A755B7A59633F300AFF172F465969C5
:1009C000757C7F7C756959462F17FFE7CFB8A595D1
:1009D000898280828995A5B8CFE7122F2C446D6C4F
:1009E00062797F6A5E6A5328221DE7D3D5B4919855
:1009F0009A8181999A91B1D6D6E42C393E42484FDA
:100A00005A787E55453A312A241CCFC4C0BBB6AEB5
:100A1000A38680A8B9C4CCD3DAE28007070606050E
:100A200005040403030302020201010101000000A6
:100A30000000FFFFFFFFFFFFFE01CADC7F639B8515
:100A40001E6B0DB2D52B2EEFD5FB1D0CEDEE060E59
:100A5000FFF4FA0605FCF9FF04011B1E190F100A2A
:100A60000B080B050803050106FF02FE03FE01FD4E
:100A7000FFFE02FE01FD00ED80CC00000000000042
:100A80000000000000000000000000000000000066
:100A9000000000000000000000009CBF0A07DFC447
:100AA000DB01EAACD3F6EDEFCB19250D3C40F1416B
:100AB0007F220909F5D41F2A31025D23C68005185B
:100AC0001E4B2CB8D93BF90D0A22DD424D34C90723
:100AD00015E1BEC9D5980707FEFA0C2519196471EE
:100AE00078DCC57F736324081209F1DAD1DCCC8C81
:100AF0008482273A8999ADF208F277F01A3242B926
:100B0000CC033E0F06DF6A057D669980F79320F7D8
:100B1000EFC2FC3045BFCEE4108E25CF1FC214E4D7
:100B200080465613C05E0459DE2F0F8E60F0EFBD75
:100B30004137BA1AB43DC7E80AB32C777E6F350740
:100B4000F9020B00E7CCBDC4D8F10F283B403015AB
:100B5000FBF1FB04F5C68D808AD5808CB18C8E802C
:100B600087CA12F5F1121D100603FBFAEDE3F1142A
:100B700006F046757F6D684E716E1C24262625246E
:100B80002123432C1D16110E0D0D29170C060301F0
:100B900000F680899CADBDCCD9E88081899ACCD5FE
:100BA0000A160A1C3211F5E5F419E50B1908ECCC0C
:100BB000E4F5E9F62B3365737A7F235E7647335489
:100BC00058401B1306BE919280A2ED3057403E372D
:100BD000C9A0CAF90DDBBAC3B6D8457E7D7851F8F5
:100BE000A2808FB6E30F3A62796920C08780839C28
:100BF00010767E5AA941ED8385C08018891B921D0D
:100C00009A1EA317AC16B416BD10D817F11E0725EF
:100C1000192C2B2F36363F3D45382823CEE02B00AC
:100C20008BDDEA340B08180FE1105F5E80BAF61C0A
:100C3000E6EFF8E4D0213371DCE1E3D974E29F659B
:100C4000F6E9C858F08068FDE1CD4D248D5921D1D9
:100C5000CA4221910549D0B959056878781D808B21
:100C6000931E764A57B8B6CAC23F044715FC1FA761
:100C7000E3B8F9664B6FC79985A51C5630CBB0EC2D
:100C8000263DEE20B8F42EDAF932FEFFDECB074027
:100C90004BE699D611497F9FA3E00FF00FF00FF0BC
:100CA0009B069F0611241FBECFEFD8E0DEBFCDBF4D
:100CB00011E0A0E0B1E0E0E0F4E702C005900D92A1
:100CC000A637B107D9F724E0A6E7B1E001C01D922D
:100CD000A732B207E1F71CE0C2EADCE004C02297C9
:100CE000FE010E94FA37C03AD107C9F70E94B63315
:100CF0000C94F3390C9400008AE791E00C94AE0850
:100D00000E946B338091760190917701A0917801D8
:100D1000B0917901681B860F911DA11DB11D8093B3
:100D2000760190937701A0937801B09379018AE7D7
:100D300091E00C940A098AE791E00C94FE078AE797
:100D400091E00C94A4088EEB92E00C94740B88E86C
:100D500091E00C949612CF92EF920F93FC01448590
:100D600084819581CC24C39422E0E22E01E0242FDB
:100D700064E08A529F4F0E945A310F91EF90CF90BA
:100D80000895FC0184819581FC01EA52FF4F23E024
:100D90003081231B208381579F4F0C9436300F9353
:100DA0001F93CF93DF931F92CDB7DEB78C01FC0169
:100DB0008481958185529F4F69830E942731F80174
:100DC000848195816981FC01E552FF4F613011F406
:100DD00022E001C021E020830F90DF91CF911F918D
:100DE0000F910895FC01848195810C94380D0F9327
:100DF0001F93CF93DF93EC01162F4C858C819D813F
:100E000001E0242F61E080529F4F0E940D32EE815D
:100E1000FF81612F80899189DF91CF911F910F917F
:100E20000C94961C242FDC011496ED91FC911597DF
:100E3000EC51FF4F308131110AC01696ED91FC91B3
:100E40001797462F6789828993890C94702B089590
:100E50000F931F93CF93DF931F92CDB7DEB78C0113
:100E6000DC0114968D919C911597FC01EC51FF4F7C
:100E700030813323B1F0611165C0642F49830E9432
:100E8000430DD8011696ED91FC9117974981642F77
:100E9000808991890F90DF91CF911F910F910C94D0
:100EA000651C61110BC0642FF801868197810F903A
:100EB000DF91CF911F910F910C94A314613009F031
:100EC00041C0DC01DB968C91813069F5F8016585C4
:100ED0008FEF860F8E37B0F586819781DC01ED911B
:100EE000FC910280F381E02D29830995F801858525
:100EF0002981222319F08F5F858702C08150858761
:100F0000F80186819781DC01ED91FC910190F081DF
:100F1000E02D4FE7D8011D966C910F90DF91CF9196
:100F20001F910F910994D8011696ED91FC91179796
:100F30006689828993890F90DF91CF911F910F91DC
:100F40000C94DD2A0F90DF91CF911F910F9108959E
:100F5000CF93DF93EC0102960E94CE32CE010B9626
:100F60000E94CE32FE017496CE01C296108211828A
:100F70001382128214823596E817F907B9F7CE0169
:100F8000CB969F01255E3F4F64E640ED57E010820F
:100F9000DC0118971C9211961C92148213821396EE
:100FA0001C9211966C935087478309963996E217E5
:100FB000F30769F7CE01835B9F4F0E941430CE0187
:100FC00081579F4F0E941430CE018F529F4F0E9435
:100FD000EC30CE018A529F4F0E94EC30CE018552F8
:100FE0009F4F0E94EC30CE0180529F4F0E94D23121
:100FF000CC51DF4F1882DF91CF910895CF93DF93CB
:10100000EC0183E291E0998388838BE391E09B83F9
:101010008A838091A30381110BC08EEB92E00E9422
:10102000A80781E08093A30383EA96E00E94B2338D
:101030008EEB92E09D838C838091AB03811166C01F
:1010400087E491E0909389018093880189E691E09B
:1010500090938B0180938A018FE691E090938D01AC
:1010600080938C018EE891E00E94EC1F10929E010B
:1010700010929F011092A1011092A00184EA91E0C8
:101080000E94EC2982EB91E00E94EC2980EC91E037
:101090000E94912982EC91E00E94E7208CEF91E080
:1010A0000E94A71F83E092E00E940F1F80E192E060
:1010B0000E942E1E8CE292E00E94AB1A81E392E025
:1010C0000E94551988EB91E0909335028093340289
:1010D00010923602109237021092380280E8E9E34B
:1010E000F2E0DF011D928A95E9F71092B9021092A1
:1010F000BA021092BB021092BC021092BD0281E0B3
:101100008093AB0387EA96E00E94B23388E891E0CF
:101110009F838E838CEF888781E2898780E28A872C
:1011200081E88B8781E08C878CE38D87BE016E5FC1
:101130007F4F88E891E00E942013BE018C819D8141
:10114000DF91CF910C94B30D23E231E0FC013183A8
:1011500020832BE331E0338322830895CF92EF92F3
:101160000F93CF93DF93EC018E819F810E94EA144D
:101170008C819D8121E0FC0121876FE370E00E945A
:10118000200D8C819D810E943F0DEE81FF81682F93
:10119000808991890E94651C2C813D81F901EC5167
:1011A000FF4F4081C9018F529F4F4423D1F043E04C
:1011B000FC0140833596108235961082EC54F1097B
:1011C00011821082EE81FF810088F189E02D61811A
:1011D0008F5C9109DF91CF910F91EF90CF900C949C
:1011E000DC324C85CC24C39432E0E32E01E0242F82
:1011F00064E00E945A314C858C819D81242F64E0EB
:101200008A529F4F0E945A31DF91CF910F91EF90F8
:10121000CF9008951F93CF93DF93EC01162F8C810D
:101220009D810E94E20C612F8C819D810E94300C77
:10123000612F8C819D810E94620C612F8C819D8128
:101240000E94AB0C612F8C819D810E94D50B8C81FB
:101250009D810E941B0F612F8E819F810E948C13A4
:101260008E819F81DF91CF911F910C94401870E087
:101270009B0143E0359527954A95E1F7820F931F2F
:10128000FC01828590E053E0220F331F5A95E1F76D
:10129000621B730B02C0959587956A95E2F7817082
:1012A0000895AF92BF92DF92EF92FF920F931F9338
:1012B000CF93DF931F92CDB7DEB75C01DC011496AC
:1012C0000D911C911597F801EC51FF4F8081811110
:1012D00017C16111C0C01696ED90FC901797F701E9
:1012E000D6886D2DC50149830E943709498188231D
:1012F00009F480C0C8018F529F4F413021F422E091
:10130000DC012C93FDC00E942731D5011496ED918C
:10131000FC911597DF01AF52BF4F81E08C9385A9F7
:1013200096A9D5011696ED91FC911797813D9740AE
:1013300008F443C086898830D1F08F3029F1853098
:1013400009F0DEC06FE0828993890E94082B682F24
:10135000F501868197810F90DF91CF911F910F91B9
:10136000FF90EF90DF90BF90AF900C944717CF01A4
:101370000F90DF91CF911F910F91FF90EF90DF9031
:10138000BF90AF900C94FD176FE0828993890E9403
:10139000082BD5011696ED91FC911797682F82893D
:1013A00093890F90DF91CF911F910F91FF90EF9054
:1013B000DF90BF90AF900C94922B86898F3009F00C
:1013C0009FC06FE0828993890E94082BD5011696F1
:1013D000ED91FC911797682F828993890F90DF9187
:1013E000CF911F910F91FF90EF90DF90BF90AF9042
:1013F0000C94EE2B413009F083C0B6E0DB1209C03B
:10140000D7015096ED91FC915197108514271087C4
:1014100015C06D2DF7018289938949830E94592B4C
:101420004981182F1427D5011696ED91FC91179735
:10143000412F6689828993890E94212BF50124819D
:101440003581F901EF52FF4F112311F082E001C005
:1014500081E0808355C06130D9F5D50116968D9114
:101460009C911797F801EA52FF4FD8014130C9F417
:1014700050961C9222E02083DC01ED91FC910190BA
:10148000F081E02D4FE7D5011D966C910F90DF9113
:10149000CF911F910F91FF90EF90DF90BF90AF9091
:1014A000099450966C936083DC01ED91FC9102806D
:1014B000F381E02DD5011D966C910F90DF91CF91B6
:1014C0001F910F91FF90EF90DF90BF90AF90099424
:1014D0006230B1F44130A1F4F50186819781DC01DD
:1014E00057962C91642F621B0F90DF91CF911F9123
:1014F0000F91FF90EF90DF90BF90AF900C94DB14B2
:101500000F90DF91CF911F910F91FF90EF90DF909F
:10151000BF90AF900895AF92BF92CF92EF920F938A
:10152000CF93DF93EC01AC80BD80F501EC51FF4F10
:10153000808181113DC0611116C0EE81FF816689F5
:10154000CE010E943709882399F14C85CC24C3949D
:10155000EE24E39402E0242F68E0C5018F529F4FF0
:101560000E945A3125C0623019F5EE81FF8127892A
:101570004C85C50185529F4FCC24C39463E0E62E71
:10158000211102C001E001C002E0242F68E00E94A6
:101590005A31EE81FF816685778582899389DF9153
:1015A000CF910F91EF90CF90BF90AF900C94D52C2E
:1015B000DF91CF910F91EF90CF90BF90AF900895B2
:1015C00070E09B01E3E035952795EA95E1F7820FFE
:1015D000931FFC01808590E0F3E0220F331FFA9502
:1015E000E1F7621B730B02C0959587956A95E2F748
:1015F00081700895EF92FF920F931F93CF93DF9323
:101600001F92CDB7DEB77C01162F022FDC01149696
:101610008D919C911597FC01EC51FF4F2081642F17
:10162000222359F0835B9F4F0F90DF91CF911F9141
:101630000F91FF90EF900C942B300B9649830E94F2
:10164000DC32612FC7010E94E00AD7011496ED91A8
:10165000FC9115974981882341F0128A642FCF01AC
:1016600081579F4F0E94363008C081E0828B642FE3
:10167000CF0181579F4F0E942B30F70184819581C4
:10168000612F835B9F4F0E942B30163049F4D701A6
:101690001696ED91FC9117970088F189E02D008551
:1016A000F70184819581FC01EF52FF4F002311F077
:1016B00022E001C021E020830F90DF91CF911F91A4
:1016C0000F91FF90EF90089502970C94AB0602974C
:1016D0000C94CF0602970C94F20602970C94FA0A27
:1016E0000C94D1390C94B939EF92FF920F931F9358
:1016F000CF93DF93EC0188819981009711F00E94CC
:10170000C9338E0100521F4FC8010E94D9317E019A
:1017100081EDE80EF11CE114F10449F00E151F05EE
:1017200031F005501109C8010E94F330F7CF8E0146
:10173000035B1F4F51F0E016F10639F082E4E81A1E
:10174000F108C7010E942A30F6CF7E0182E3E80E3D
:10175000F11CE114F10449F00E151F0531F0095098
:101760001109C8010E949432F7CF8E010C5E1F4F01
:1017700051F0E016F10639F085E0E81AF108C701EA
:101780000E945B32F6CF229649F00C171D0731F00C
:1017900009501109C8010E94DB32F7CFDF91CF91C8
:1017A0001F910F91FF90EF900895CF92DF92EF92EB
:1017B000FF920F931F93CF93DF93EC018091C003AF
:1017C000680F603420F46093C003D12C0FC0862FC3
:1017D00090E026E0959587952A95E1F7D82E262F5B
:1017E00030E4839F201911242093C0036D2DCE0176
:1017F000835B9F4F0E948030C82E6D2DCE01815794
:101800009F4F0E948030882311F0CC24C39400E0C5
:1018100010E07E0181EDE80EF11C6D2DC701800FF7
:10182000911F0E949231882311F0CC24C3940B5F46
:101830001F4F0F30110589F76D2DCE0180529F4F3C
:101840000E942B32882311F0CC24C3948C2DDF917D
:10185000CF911F910F91FF90EF90DF90CF9008955F
:10186000DF92EF92FF920F931F93CF93DF937C0150
:10187000D62EEC01649600E010E0F801EF53FC4F27
:1018800080818C836D2DCE010E945C32882361F0B3
:10189000D7018D919C91DC01ED91FC910480F58143
:1018A000E02D4C81602F09950F5F1F4F2596063064
:1018B000110519F7DF91CF911F910F91FF90EF90D4
:1018C000DF900895CF92DF92EF92FF920F931F93D4
:1018D000CF93DF937C01D62E8C010E5C1F4FC0E0AE
:1018E000D0E0CC2EFE01E953FC4F8081D8018C93CF
:1018F0006D2DC8010E949532882359F0F70180812F
:101900009181DC01ED91FC910280F381E02D6C2F3F
:1019100009956D2DC8010E94AC32882369F0F7014A
:1019200080819181DC01ED91FC910190F081E02DAD
:10193000D8014C916C2D09952196075F1F4FC3303C
:10194000D10579F6DF91CF911F910F91FF90EF9024
:10195000DF90CF900895DF92EF92FF920F931F9345
:10196000CF93DF937C01D62EEC01229600E010E0AD
:10197000F801EE0FFF1FE653FC4F808191819A839F
:1019800089836D2DCE010E94E932882369F0D70149
:101990008D919C91DC01ED91FC910680F781E02D09
:1019A00028854881602F09950F5F1F4F29960230C7
:1019B0001105F1F6DF91CF911F910F91FF90EF90FC
:1019C000DF9008951F93CF93DF93EC0110E4909183
:1019D000CF038091D003981312C08091CE03882347
:1019E00059F1888199816091CE03DC01ED91FC91E0
:1019F0000284F385E02D09951092CE031DC08881E5
:101A00009981E091CF03F0E0EF52FC4F6081DC015F
:101A1000ED91FC910084F185E02D09958091CF0333
:101A20008F5F8093CF038091CF03803410F01092AA
:101A3000CF03115061F6D1CFDF91CF911F9108955F
:101A4000E0ECF0E08081826080837093C500609359
:101A5000C400E1ECF0E08081806180838081886057
:101A6000808380818068808380818F7D80830895DA
:101A70008091C00085FFFCCF6093C60008958FEF72
:101A800093E00C94C9398FEF93E00C94E1392A9AD2
:101A9000229A8CB580618CBD8CB580648CBD239AF4
:101AA000259A8DB581608DBD8CB58D7F8CBD8CB533
:101AB0008E7F8CBD8CB58F7D8CBD8CB5877F8CBDAA
:101AC0008CB58B7F8CBD08956EBD0DB407FEFDCF28
:101AD00008950F931F93CF93DF9300D0CDB7DEB758
:101AE0008C012A98660F60642A8349830E94640DE2
:101AF0004981642FC8010E94640D2A81622FC801A8
:101B00000E94640D2A9A0F900F90DF91CF911F9140
:101B10000F9108950F931F93CF93DF9300D01F92DF
:101B2000CDB7DEB78C012A98660F60642A833B83A9
:101B300049830E94640D4981642FC8010E94640D8D
:101B40002A81622FC8010E94640D3B81632FC80166
:101B50000E94640D2A9A0F900F900F90DF91CF9101
:101B60001F910F9108954F925F926F927F928F9283
:101B70009F92AF92BF92CF92DF92EF92FF920F931C
:101B80001F93CF93DF93CDB7DEB729970FB6F894A5
:101B9000DEBF0FBECDBF8C01FC0171836083F89462
:101BA0000E94470DF12C28E04AE06F2DC8010E94E9
:101BB000690D20E030E040E06F2DC8010E948A0DE1
:101BC000F394F3E0FF12EFCFC12CD12CE12CF12CD8
:101BD00057E8A52E65E0B62EE0927C0080917C004F
:101BE000806480937C0080917C00806280937C0084
:101BF000A0927A0080917A00806480937A0080912C
:101C00007A0086FDFCCF60917900F701EF53FC4F1D
:101C10006083CE0101960E945432D801AC0DBD1DE7
:101C2000FE01319654968B2D01900D928A95E1F725
:101C3000CE0101960E945B328FEFE81AF80AE5E0C8
:101C4000CE0ED11CF6E0EF16F10431F610927C00B6
:101C500080917C00806480937C0080917C00806215
:101C600080937C008FE880937A0080917A00806472
:101C700080937A0080E090E0C12CD12C7601C3944F
:101C800020E030E0DC01AE5BBE4FFD01E20FF31F50
:101C900044918AB02601370104C0440C551C661CCF
:101CA000771C4A95D2F7B301A201409550956095F3
:101CB0007095912CA12CB12C482159216A217B21AE
:101CC0004AB94491FBB13601470104C0660C771C48
:101CD000881C991C4A95D2F7B401A3014F2B4BB92C
:101CE0002F5F3F4F2230310581F6029684309105F7
:101CF00039F6209828982198299856985E98539AF2
:101D00005B98F3B0F0946F2D61706093C70340ED62
:101D100057E0CE0101960E94883289E0FE0131969B
:101D2000D801D29601900D928A95E1F7CE010196E5
:101D30000E949432F80182A9813019F4EC51FF4FCE
:101D40008083F1FA662760F96093C80340ED57E09D
:101D5000CE0101960E94883289E0FE013196D801B9
:101D6000DB9601900D928A95E1F7CE0101960E94D3
:101D7000943269B1609566FB662760F96093C90388
:101D800040ED57E0CE0101960E948832D801AC5B4D
:101D9000BF4F89E0FE01319601900D928A95E1F7DF
:101DA000CE0101960E94943280916B0081608093F5
:101DB0006B0080916B00826080936B00D89A809159
:101DC000680081608093680080916D0084608093DA
:101DD0006D0080916D00806180936D0080916D0039
:101DE000806280936D0080916D00806480936D00AF
:101DF00080916D00806880936D00DA9A8091680010
:101E0000846080936800789429960FB6F894DEBFBA
:101E10000FBECDBFDF91CF911F910F91FF90EF903B
:101E2000DF90CF90BF90AF909F908F907F906F90FA
:101E30005F904F9008950F931F93CF93DF938C0182
:101E4000FC01E35BFF4FC081D1818091BA03909187
:101E5000BB03C817D90751F09E0142E160E0C801F9
:101E60000E948A0DD093BB03C093BA03F801E157D7
:101E7000FF4FC081D1818091BC039091BD03C817F1
:101E8000D90751F09E0142E161E0C8010E948A0D2C
:101E9000D093BD03C093BC03F801EF52FF4F808184
:101EA000982F9D7F913019F4C2E0D0E002C0C0E0CD
:101EB000D0E08250823008F4C160F801EA52FF4F4E
:101EC0008081982F9D7F913009F4C86082508230C4
:101ED00008F4C460F801E552FF4F8081813061F061
:101EE000823061F0833059F48091B90391E0892701
:101EF0008093B903882311F0C06201C0C064F80167
:101F0000E052FF4F80818111C0618091BE039091AA
:101F1000BF03C817D90751F09E0142E162E0C80132
:101F20000E948A0DD093BF03C093BE03DF91CF916F
:101F30001F910F9108951F920F920FB60F921124C7
:101F40008F93EF93FF93E091B803F0E080917900D5
:101F5000EF53FC4F80838091B7038F5F8A3018F472
:101F60008093B70302C01092B703E091B703F0E08B
:101F7000E85CFE4FE491E093B8038091B80380934E
:101F80007C0080917C00806480937C0080917C0048
:101F9000806280937C008FE880937A0080917A0041
:101FA000806480937A00FF91EF918F910F900FBE24
:101FB0000F901F9018951F920F920FB60F92112439
:101FC0008F939F9383B18095982F91709093C703BF
:101FD000869581708093C8039F918F910F900FBE5B
:101FE0000F901F9018951F920F920FB60F92112409
:101FF000EF92FF920F931F932F933F934F935F9313
:102000006F937F938F939F93AF93BF93CF93DF9300
:10201000EF93FF93F9B0F0940F2D10E0C80126E084
:10202000959587952A95E1F781708093C903C5EB53
:10203000D3E0A3EBB3E062E471E020E030E0F9012B
:10204000EA5BFE4FE490EF208881E81609F43CC07B
:10205000FB01849131964491F80102C0F595E79512
:102060008A95E2F7CF0181709927880F991F880F11
:10207000991FF80102C0F595E7954A95E2F7AF017F
:1020800041705527F3E0440F551FFA95E1F7842B73
:10209000952B4C9150E05595479555954795842B38
:1020A000952B8C93FC01E85BFE4F8491F901EE0FB8
:1020B000FF1FE653FC4F40815181481B510987FDAA
:1020C000539551834083E8822F5F3F4F21961196AD
:1020D0006E5F7F4F2230310509F0B1CFFF91EF9154
:1020E000DF91CF91BF91AF919F918F917F916F9130
:1020F0005F914F913F912F911F910F91FF90EF9022
:102100000F900FBE0F901F9018951F920F920FB651
:102110000F9211248F939F93EF93FF938091C000B0
:102120008091C600E091D003F0E0EF52FC4F808335
:102130008091D0038F5F8093D0038091D00380344F
:1021400010F01092D0039091D0038091CF03981398
:1021500003C084E08093CE03FF91EF919F918F9114
:102160000F900FBE0F901F90189508958B5C9E4F97
:1021700021E0FC0120830895DC0158968D919C910B
:102180005997DC01ED91FC910480F581E02D0994D3
:10219000462FDC0158968D919C915997DC01ED9169
:1021A000FC910190F081E02D20E060E009948055E1
:1021B0009F4FFC01608308950F931F93CF93DF938C
:1021C000EC018C010A5F1F4FC8010E94FD1F40E017
:1021D00056E060E070E0C8010E941D20CE55DF4F40
:1021E00088819981DF91CF911F910F910C94FD1BF4
:1021F0000F931F93CF93DF93EC018C010A5F1F4F66
:10220000C8010E94FD1F40E05DE760E070E0C8018A
:102210000E941D20CE55DF4F88819981DF91CF919B
:102220001F910F910C94FD1BFC016A3409F450C0FE
:10223000D0F4613109F448C068F46530A9F1603127
:10224000D9F1613009F07CC0242F30E03595279515
:1022500043E070C0683409F43FC008F048C06734F8
:1022600009F44DC008956C3509F455C088F46F34F5
:1022700009F449C06B3509F45AC06B3409F060C0E9
:1022800050E093E0559547959A95E1F766E02BC0AD
:102290006E3509F448C008F442C06F3509F447C0F0
:1022A0006B3709F449C0089550E063E055954795B0
:1022B0006A95E1F76DE017C0242F220F42E060E03D
:1022C000828993890C94702B242F220F45E0F7CF3D
:1022D000242F220F40E0F3CF50E033E0559547958F
:1022E0003A95E1F768E0828993890C94DD2A50E001
:1022F00023E0559547952A95E1F765E0F4CF242F23
:10230000220F41E0DCCF50E083E0559547958A9558
:10231000E1F76AE0E8CF242F220F44E0D0CF242F4A
:10232000220F43E0CCCF242F220F42E003C0242F02
:10233000220F45E061E0C4CF808991890C94801C14
:102340000895CF92DF92EF92FF920F931F93CF9356
:10235000DF93EC01E62EF42E062F10E00F3011056E
:1023600008F09AC0F801EC5CFF4F0C94F837642F2A
:102370008C899D890E94502E8FC0642FCA960E941E
:10238000F6208AC0E42FF0E0EE0FFF1FE856FE4F64
:10239000659174918A962AC0042F10E0000F111FD6
:1023A00008561E4FF801659174916C018AE2C80EBF
:1023B000D11CC6010E94072AF80165917491C601DB
:1023C00039C0E42FF0E0EE0FFF1FE858FE4F659193
:1023D0007491CE018A9622C0E42FF0E0EE0FFF1F29
:1023E000E856FE4F65917491CE014C960E94012AE9
:1023F00053C0E42FF0E0EE0FFF1FE856FE4F65914B
:1024000074914C960E94072A47C0E42FF0E0EE0F2B
:10241000FF1FE858FE4F659174914C960E940D2A5B
:102420003BC0E42FF0E0EE0FFF1FE856FE4F659132
:1024300074914C960E94132A2FC0FC01E858FF4F5C
:1024400040832AC0642F8C589F4F0E94B31F24C022
:10245000642FFC01EE55FF4F808191810E94971BF4
:102460001BC0642FFC01EE55FF4F808191810E94BB
:10247000311B12C0E42FF0E0EE0FFF1FE85AFE4FB1
:102480006591749185589F4F0E94691F05C0642F04
:102490008C559F4F0E94B21A8E89E8121BC0E88D9E
:1024A000F98D0190F081E02D008111816E2D8A89D6
:1024B0009B890E94592B282F4F2D6E2D888D998D29
:1024C000F801DF91CF911F910F91FF90EF90DF9076
:1024D000CF900994DF91CF911F910F91FF90EF90D2
:1024E000DF90CF900895FC01EE5CFE4F6623E1F093
:1024F0002081213071F038F023502230B0F4FC01FB
:10250000EC5CFE4F11C06150FC01828993890C94F0
:10251000B82C50E0440F551F4E5751096150FC0133
:10252000848995890C94802D408308950F931F937F
:10253000CF93DF93EC0187E491E09983888389E668
:1025400091E09B838A838FE691E09D838C830C8945
:102550001D890115110531F0C8010E94172DC80110
:102560000E94C9330A8D1B8D0115110531F0C80178
:102570000E94CF2EC8010E94C9330A891B89011508
:10258000110531F0C8010E94D52AC8010E94C93343
:10259000088919890115110531F0C8010E945C1CD8
:1025A000C8010E94C933FE01E955FF4F0081118126
:1025B0000115110531F0C8010E94B019C8010E942F
:1025C000C933FE01EE55FF4F008111810115110540
:1025D00031F0C8010E941D1BC8010E94C933CE0101
:1025E00087559F4F0E945819CE018C559F4F0E94CE
:1025F000B11ACE0188579F4F0E94481ECE018558C0
:102600009F4F0E94201FCE018C589F4F0E94B21FE7
:10261000CE01CA960E94F520CE01C8960E94962946
:10262000CE018A960E94002ACE014C960E94002A72
:10263000CE010696DF91CF911F910F910C94FC1F54
:102640000F931F93CF93DF93EC01798F688F88E10D
:1026500090E00E94C5338C01BE016C5F7F4F0E94E9
:10266000B92A1B8B0A8B88E090E00E94C5338C014D
:1026700040E651E060E20E942A2E1D8B0C8B84E024
:1026800090E00E94C5338C0160E20E94B02E1B8F47
:102690000A8F8AE090E00E94C5338C0160E20E94BC
:1026A0008A19FE01E955FF4F1183008340E05DE781
:1026B00060E070E0CE0106960E941D208DE090E063
:1026C0000E94C5338C0140E0BE010E944C1C198B56
:1026D000088B8FE290E00E94C5338C01AE014F540D
:1026E0005F4FBE016E5F7F4F0E94F71AFE01EE55ED
:1026F000FF4F1183008384E090E00E94C5338C017A
:1027000060E20E94F418C655DF4F19830883DF91F9
:10271000CF911F910F9108958F929F92AF92BF9288
:10272000CF92DF92EF92FF920F931F93CF93DF939D
:1027300000D01F92CDB7DEB77C01962EDC015096FB
:102740008D919C915197FC01248187010A5F1F4F55
:10275000222319F00E945D1C682FC8010E9484206A
:10276000D7011E966D917C911F97C7018C589F4F82
:102770000E94C81FF70166857785EE55FF4F80815F
:1027800091810E940B1C6701FCE1CF0ED11C692DC9
:10279000C6010E94432A692D57018AE2A80EB11C86
:1027A000C5010E94432AF701E758FF4F1081C50178
:1027B0000E941E2A882E5701AAE3AA0EB11CD70137
:1027C0005A96ED91FC915B974081518162817381B2
:1027D000082F212FC5010E944F27692DC701855859
:1027E0009F4F0E946E1FF701E158FF4F20813181FA
:1027F000BD96318320837897318320837C96208116
:10280000482D612FC70188579F4F0E94811EF701F5
:10281000EA56FF4F4081518160E070E0E5E0440FEF
:10282000551F661F771FEA95D1F7F701828D938DAB
:102830000E94352F60E2CE0101960E945F2EBE01FC
:102840006F5F7F4FD70154968D919C9155970E9451
:10285000292D212F40E0BE016F5F7F4FF701E65524
:10286000FF4F808191810E94FF186EE0F7018289FD
:1028700093890E94592B882341F0BE016F5F7F4FDF
:10288000C7018C559F4F0E94C61ABE016F5F7F4FD4
:10289000C5010E94F228C6010E941E2A212F482F3E
:1028A000BE016F5F7F4FC701C8960E949729D7016D
:1028B00098968C91F701E955FF4F811105C08081F1
:1028C00091810E94921A09C0212F40E0BE016F5FE2
:1028D0007F4F808191810E94C2196EE0F701828949
:1028E00093890E94592B811108C0BE016F5F7F4FF1
:1028F000C7018C559F4F0E94C61ABE016F5F7F4F64
:10290000C70187559F4F0E945919BE016F5F7F4FC6
:10291000D7015A968D919C915B970E94B62FCE015C
:1029200001960E946E2E0F900F900F90DF91CF9125
:102930001F910F91FF90EF90DF90CF90BF90AF90DD
:102940009F908F900895EF92FF920F931F93CF93D4
:10295000DF931F92CDB7DEB77C01DC0156966C93F6
:1029600056975896ED91FC9159970190F081E02D82
:102970000081118152968D919C9153970E94592B01
:10298000282FF70166898289938929830E94082B61
:102990002981482FD70156966C91569758968D915C
:1029A0009C915997F8010F90DF91CF911F910F9152
:1029B000FF90EF900994DC0157966C9357975896C7
:1029C0008D919C915997DC01ED91FC910280F381EE
:1029D000E02D0994EF92FF920F931F93CF93DF9313
:1029E000EC018A8D9B8D0E94E22EE12CF12CE88176
:1029F000F981028D138D4E2D6F2D8A899B890E943E
:102A0000882B282F4E2D6F2DCE01F8010995F394B8
:102A1000F2E0FF12ECCFE39486E0E812E7CFF12C6E
:102A2000E881F981068917896F2D8A899B890E941F
:102A3000082B482F6F2DCE01F8010995E881F98107
:102A4000008D118D6F2D8A899B890E94592B482FEB
:102A50006F2DCE01F8010995F394F0E1FF12E0CF5C
:102A600060E0CE010E94A31460E0CE01DF91CF911F
:102A70001F910F91FF90EF900C94DB14CF93DF9395
:102A8000EC01E62FF0E0EE0FFF1FE854FE4F6591DA
:102A9000749185589F4F0E94501FCE014C960E9402
:102AA000332ACE018A96DF91CF910C94332ACF92AC
:102AB000DF92EF92FF920F931F93CF93DF93EC017E
:102AC000FC01E60FF11DEF54FF4F808181114DC0D5
:102AD0007E018EEAE80EF11CD7018C916E01BFEAEF
:102AE000CB0ED11CD6018C938F5FD7018C9381E0E4
:102AF0008083FE01EF5CFE4F8081861708F46083BF
:102B00008E010E551F4FF80180819181DC011296D4
:102B10002C91211104C0CE010E943E1502C00E94DA
:102B2000561BD801ED91FC9182818823F1F0F601CA
:102B3000808181111AC0D7018C918130B1F4E8896C
:102B4000F9898481811111C0CE0106960E94FD1F72
:102B5000F80180819181DF91CF911F910F91FF90BA
:102B6000EF90DF90CF900C94FD1BDF91CF911F91E0
:102B70000F91FF90EF90DF90CF900895CF93DF9368
:102B8000EC014C960E943D2ACE018A96DF91CF91AE
:102B90000C943D2ACF93DF93FC01E60FF11DEF5417
:102BA000FF4F2081222309F44BC0DC01A255BF4F07
:102BB0005C91EC01C155DF4F588351505C931082FA
:102BC000FC01EF5CFE4F2081621310C010829C015B
:102BD0004FE7D901A05DBE4F6C91662311F0408391
:102BE00005C04150215031094111F3CFDC01AE55F0
:102BF000BF4F511106C0CD91DC9111972A8122233C
:102C0000D9F00D90BC91A02D12962C911297211104
:102C10000EC0E081F0E0EE0FFF1FE854FE4F65911B
:102C2000749185589F4FDF91CF910C94501FCD0127
:102C3000DF91CF910C94561BDF91CF910C94BE1570
:102C4000DF91CF9108950F931F93CF93DF931F923E
:102C5000CDB7DEB78C01662321F049830E94BE15F3
:102C60004981442349F0642FC8010F90DF91CF912F
:102C70001F910F910C943E150F90DF91CF911F91F2
:102C80000F910895FF920F931F93CF93DF93EC0161
:102C9000F42E022F162FF11678F0612F8A899B8966
:102CA0000E94592B801731F0402F612F8A899B8910
:102CB0000E94212B1F5FEFCFDF91CF911F910F91CA
:102CC000FF900895EF92FF920F931F93CF93DF939E
:102CD0001F92CDB7DEB77C01062F10E00E30110534
:102CE00008F056C0F801ED5BFF4F0C94F837DC019B
:102CF0005496ED91FC91559742834AC0642FCA9631
:102D00000F90DF91CF911F910F91FF90EF900C9456
:102D10003321642F8A9649830E94192A4981242FDE
:102D200044E062E014C0642FFC01848995890F900F
:102D3000DF91CF911F910F91FF90EF900C94572E40
:102D4000FC01E658FF4F4083242F4AE069E0C701A9
:102D50000F90DF91CF911F910F91FF90EF900C9406
:102D60004216FC01EE55FF4F0190F081E02D4783A4
:102D7000242F4CE06BE0EBCF642F85589F4F0F90D2
:102D8000DF91CF911F910F91FF90EF900C94651FF1
:102D90000F90DF91CF911F910F91FF90EF900895C9
:102DA000EF92FF920F931F93CF93DF93EC01F62ED8
:102DB000142F01E0061B602F8A899B890E94882BB3
:102DC000E82E412F6F2D8A899B890E94882BE81657
:102DD00099F0412F6F2D8A899B890E94882B282F7B
:102DE000412F602F8A899B89DF91CF911F910F918D
:102DF000FF90EF900C94702BDF91CF911F910F916A
:102E0000FF90EF900895362F622F4230B1F028F4F2
:102E1000442349F0413059F00895443001F1B0F0B5
:102E2000453041F10895FC0122AF40E003C0FC01B0
:102E300023AF41E0632F0C94D016311103C0CA9622
:102E40000C94462188579F4F0C94491E311103C0A2
:102E5000CA960C94622188579F4F0C94651EFC0102
:102E6000311102C020AF0895E655FF4F0190F08167
:102E7000E02D05C0FC01311104C0E755FF4F608310
:102E80000895E955FF4F808191810C94A11ADF923A
:102E9000EF92FF920F931F93CF93DF93CDB7DEB7DF
:102EA000C554D1090FB6F894DEBF0FBECDBF7C016B
:102EB00088E0EFE0F1E0DE019E9601900D928A95A8
:102EC000E1F71EAA1FAAFE01F8968CE0DF011D9211
:102ED0008A95E9F78FEF88AF8EAF26961FAE1EAEAC
:102EE0002697CE018E960E94EE2B19828E010E5FE0
:102EF0001F4FD12C6D2DCE018E960E94A02CF80173
:102F000081938F01D394FCE2DF12F4CF4DE250E0C5
:102F1000BE016F5F7F4FD70150968D919C91519765
:102F20000E94941DCE018E960E94D52ACB5BDF4F66
:102F30000FB6F894DEBF0FBECDBFDF91CF911F91CA
:102F40000F91FF90EF90DF900895DF92EF92FF9244
:102F50000F931F93CF93DF93CDB7DEB7A9970FB62B
:102F6000F894DEBF0FBECDBF8C01F62EDC01549667
:102F7000ED91FC9155974481558160E2CE01829696
:102F80000E942A2E6F2DCE0182960E94DC2D81E0B8
:102F900089837E01B2E0EB0EF11CD12C6D2DCE01A8
:102FA00082960E948C2D8058282F30E035952795E9
:102FB000F70121937F01D394F0E2DF12EFCF41E2DA
:102FC00050E0BE016F5F7F4FD80150968D919C916C
:102FD00051970E94941DCE0182960E94172DA996AA
:102FE0000FB6F894DEBF0FBECDBFDF91CF911F911A
:102FF0000F91FF90EF90DF900895CF93DF931F9292
:10300000CDB7DEB722E0298341E050E0BE016F5F1B
:103010007F4FFC01808991890E94941D0F90DF9160
:10302000CF910895CF93DF9300D0CDB7DEB723E0E3
:1030300029836A8342E050E0BE016F5F7F4FFC014D
:10304000808991890E94941D0F900F90DF91CF91FC
:103050000895CF93DF9300D0CDB7DEB724E0298366
:103060006A8342E050E0BE016F5F7F4FFC018089C0
:1030700091890E94941D0F900F90DF91CF91089538
:10308000EF92FF920F931F93CF93DF93EC01FC011C
:10309000EB5CFE4F8081882309F493C01082339744
:1030A0008081823009F47CC028F48823B1F081301B
:1030B00069F187C0833009F466C0843009F081C0AB
:1030C000FE01EC5CFE4F6081CE01DF91CF911F913C
:1030D0000F91FF90EF900C94A517FE01ED5CFE4F51
:1030E00080818823B1F18E010C5C1E4FD8016C9158
:1030F0008A899B890E94922BF80160816F5F6083AF
:10310000603108F455C0108260E018C07E01BDEC4B
:10311000EB1ABEEFFB0AF7018081882349F18E018B
:103120000C5C1E4FD8016C918C899D890E94982D52
:10313000F80160816F5F6083603148F4CE01DF91F8
:10314000CF911F910F91FF90EF900C942918D70108
:103150001C92888D998DDC01ED91FC910680F781A0
:10316000E02DDF91CF911F910F91FF90EF90099487
:1031700060E08A899B890E94082B682F8C899D8931
:103180000E94982DE6CFFE01EC5CFE4F6081CE01DF
:10319000DF91CF911F910F91FF90EF900C94471703
:1031A000FE01EC5CFE4F1082319781E0808360E08D
:1031B000CE01DF91CF911F910F91FF90EF900C9472
:1031C0001218DF91CF911F910F91FF90EF9008950A
:1031D00004970C94A11102970C94231604970C9455
:1031E000621604970C940317FC011082118263830A
:1031F00070E080E091E00E94A337628308950F930E
:103200001F93CF93DF93FC01EB018081A18181119A
:1032100003C0AA2309F444C0332727FD3095215861
:103220003F4F90E00196289F8001299F100D389F05
:10323000100D11240281812F602F0E949737182FC3
:10324000552747FD509557FF03C0519541955109AA
:10325000B0E011964A9FC0014B9F900D5A9F900D70
:103260001124880F892F881F990B9195602F0E9438
:1032700097376381282F30E0210F311D462F50E012
:103280004217530714F0612F680F80E090E0861713
:1032900038F4E981FA81E80FF91F10820196F7CF1F
:1032A000DF91CF911F910F910895FC011082089535
:1032B0000895CF93DF93EC01288130E085E03595C8
:1032C00027958A95E1F740E050E8AFE7FB01808160
:1032D0004817E8F4EB01E981FA81E40FF11D8081E0
:1032E000992787FD9095022E02C0880F991F0A9496
:1032F000E2F78038910514F0A08307C08038DFEF33
:103300009D0714F4508301C080834F5FDFCFDF91AE
:10331000CF9108950F931F93CF93DF93EC01198200
:103320001A8281E08B838C838D838E8318861F8223
:103330001986688383E090E00E94C5338C01688120
:103340000E945F2E18870F83688170E080E091E013
:103350000E94A3376B83DF91CF911F910F91089546
:10336000CF93DF93FC01C781D085209741F0CE0138
:103370000E946E2ECE01DF91CF910C94C933DF9164
:10338000CF910895CF92DF92EF92FF920F931F9308
:10339000CF93DF93FC016B018181A281811103C076
:1033A000AA2309F4B6C0332727FD309521583F4F93
:1033B00090E00196289F8001299F100D389F100DE5
:1033C0001124F380812F6F2D0E949737082F5527E6
:1033D00047FD509557FF03C0519541955109B0E005
:1033E00011964A9FC0014B9F900D5A9F900D11243A
:1033F000880F892F881F990B91956F2D0E94973701
:103400001081282F30E0200F311D412F50E042174E
:10341000530714F0800F01C0812F811101C081E09A
:1034200000911104081710F4100F01C0102F181B81
:10343000F12CD6018C91F81608F068C02F2D30E0E1
:10344000A781B08511966D917C911297412F50E024
:10345000E601A981BA81A20FB31FEC90DB01A40F92
:10346000B51F8C91992787FD9095048002C0959592
:1034700087950A94E2F78E0D911DE7FC9A958038A6
:10348000910534F48038DFEF9D071CF480E801C01B
:103490008FE7DB01A00FB11D8C93E601A981BA81F2
:1034A000A20FB31F8C91992787FD9095068002C0CB
:1034B000959587950A94E2F727813085E90129815E
:1034C0003A81240F351FE9012881332727FD3095E4
:1034D000058002C0359527950A94E2F7820F931F65
:1034E0008038910534F48038DFEF9D071CF480E8C4
:1034F00001C08FE78C930F5F8081081708F000E010
:103500001F5F181708F010E0F39493CF0093110495
:103510001186DF91CF911F910F91FF90EF90DF9077
:10352000CF900895CF93DF93EC018985811106C078
:103530008F8198850E94A92E81E08987DF91CF91A4
:103540000895FC016183611105C02281211102C02F
:103550000C94921A0895FC01108281E081831282FA
:1035600008950895FC016283611103C0108281E017
:103570000BC0862F83708C5F80836695669581E093
:1035800001C0880F6A95EAF7818308951F93CF934E
:10359000DF93DC01FB0110E08081181720F5119604
:1035A0006C911197812F0E949737412F50E06181D4
:1035B0007281911112C08C91EB01C40FD51F28812B
:1035C000332727FD3095082E02C0359527950A949C
:1035D000E2F701C0220F8A95EAF7EB01C40FD51F6D
:1035E00028831F5FD9CFDF91CF911F910895CF938B
:1035F000DF93FC01128282E0838381E090E0958377
:10360000848384E0868317821086118680E1848714
:1036100015861686DF011F96ED01982F19929A954F
:10362000E9F75096ED0119928A95E9F77183608365
:1036300053874287DF91CF910895CF93DF93EC01B9
:1036400088819981009711F00E94C9338A859B85F2
:10365000009721F0DF91CF910C94C933DF91CF9186
:103660000895DC0113966C93139770E0FB01EE0F45
:10367000FF1FE853FC4F8591949115969C938E9370
:103680001497FB01E854FC4F649116966C930895CF
:10369000161634F46150FC01E60FF11D878508957C
:1036A0006095FC01E60FF11D878D0895FC013F96A2
:1036B00020E1DF01322F1D923A95E9F77096DF0184
:1036C0001D922A95E9F720E030E040E0DC011A96EF
:1036D000ED91FC911B972038310581F0DF01A20F9D
:1036E000B31F5C91552379F0DC01A40FB11D47FD98
:1036F000BA951F962C934F5F40312CF0E058FF4F46
:103700002FE730E00FC02F5F3F4FE0CFDC01A30F6A
:10371000B11D37FDBA955F962C933F5F303134F47D
:10372000215021F042914423D9F3F0CF08950F9313
:103730001F93CF93DF931F92CDB7DEB78C01FC01AF
:103740008281811107C0662329F0C80169830E9424
:10375000561B6981F80162830F90DF91CF911F9111
:103760000F910895FC0197818185911104C08F30DC
:1037700061F4118608959085911109C08F3029F464
:103780008EE0818781E0808708958F5F07C0811177
:1037900004C081E081871086089581508187089553
:1037A000FF920F931F93CF93DF93EC018F818111D1
:1037B00002C000E101C000E210E08985EA8190E1E9
:1037C000E99FF0011124E80FF11D87FDFA95E854F7
:1037D000FD4F6491CE010E94481BF82ECE010E943D
:1037E000B21BF11003C01F5F101738F38F2DDF914C
:1037F000CF911F910F91FF900895CF93DF93EC012C
:10380000198680E18C871D86CE010E94D01B8E8791
:10381000DF91CF910895FF920F931F93CF93DF9382
:10382000EC019B018A81882389F1AC81BD810E94D2
:10383000FE370E8004C096958795779567950A9414
:10384000D2F7062F0F708C85081701F1102F181B67
:1038500017FD105FF12CF11634F4CE010E94D01B3D
:103860008E87F394F8CF4E85411103C08D85882350
:1038700061F088819981DC01ED91FC910190F081EA
:10388000E02D6D8509958E858D870C87DF91CF9111
:103890001F910F91FF900895FC018DE780831182A5
:1038A000148215821682108612861186148613865B
:1038B00073836283478308950895FC01818522857F
:1038C000938583872487891B0895CF93DF93DC0139
:1038D000603120F011961C92119703C011966C93E1
:1038E000119712968D919C911397EC01E881F981C3
:1038F0000288F389E02D11966C91DF91CF910994A4
:103900001F93CF93DF93EC0110E08A819B81DC0150
:10391000ED91FC910280F381E02D612F09951F5FED
:10392000103899F7DF91CF911F910895FC01462F30
:10393000683F48F16C3F28F46A3F60F4683F21F02B
:1039400008956C3FB1F00895818592850196928724
:1039500081870895128611861486138681E08483F8
:1039600082819381DC01ED91FC910480F581E02D51
:1039700009C0148282819381DC01ED91FC91068063
:10398000F781E02D0994603F70F110921504603FBB
:10399000A9F481E0858316828FEF80930B018093D9
:1039A0000A018085882309F4BEC082819381DC01ED
:1039B000ED91FC910084F185E02DE4CF673F09F0A3
:1039C000B2C08581882309F4AEC015828085882322
:1039D00009F4A9C082819381DC01ED91FC910484FA
:1039E000F585E02DCFCF67FF0BC06093150481E014
:1039F00080931404109213041092120415820895F7
:103A00008581882331F1668181E0860F868381304C
:103A100019F440930B010895823019F440930A0180
:103A2000089590910B01808198137DC090910A01B7
:103A30008781981378C08085882309F474C08281B7
:103A40009381DC01ED91FC9162500284F385E02DBD
:103A5000099480911504882309F465C09091140499
:103A6000992329F06093130410921404089560932D
:103A700012049181292F206982130BC0662349F01B
:103A800082819381DC01ED91FC910190F081E02D28
:103A900040C0392F3068831721F082130DC04111C7
:103AA0000BC082819381DC01ED91FC910280F38156
:103AB000E02D6091130420C0292F206E82131EC0B8
:103AC00082819381DC01ED91FC91411105C0048854
:103AD000F589E02D61E810C04F3729F40488F58995
:103AE000E02D6FE709C0642F70E060547109660F24
:103AF000771F0488F589E02D09950EC0906B891316
:103B00000BC082819381DC01ED91FC910088F189E9
:103B1000E02D609113040995109213041092120481
:103B200081E0809314040895AF92BF92DF92EF92E8
:103B3000FF920F931F93CF93DF931F92CDB7DEB702
:103B40005C01D62E7A01DC0112968D919C9113971F
:103B5000DC01ED91FC910684F785E02D60EF79831F
:103B60000995F50182819381DC01ED91FC91068438
:103B7000F785E02DD5016C910995F501828193813E
:103B8000DC01ED91FC910684F785E02DD5011796B7
:103B90006C9109950D2D7981172FE00EF11EF5011D
:103BA000828193810E151F0559F0F80161918F01F3
:103BB000DC01ED91FC910684F785E02D0995EFCFAE
:103BC000DC01ED91FC910684F785E02D67EF0F9005
:103BD000DF91CF911F910F91FF90EF90DF90BF90F9
:103BE000AF9009948F929F92AF92BF92CF92DF9243
:103BF000EF92FF920F931F936A017B0148015901D5
:103C0000682F772767FD7095872F972F0E940135C2
:103C100020E030E04EEF52E40E943534A7019601D7
:103C20000E945B360E94A234A50194010E945B367B
:103C300020E030E040E85FE30E94CD330E94BE36D2
:103C40000E94D334862F1F910F91FF90EF90DF9049
:103C5000CF90BF90AF909F908F900895FC0148E166
:103C600052E761EB7FE3408351836283738380E497
:103C7000848386E0858348E152E761E37FE34683FE
:103C800057836087718780E8828787E083870895FC
:103C90000895CF93DF93EC01688B70E080E090E0B3
:103CA0000E94FF34288139814A815B810E945B3602
:103CB00020E030E04FE753E40E943534698B7A8B83
:103CC0008B8B9C8BDF91CF910895CF93DF93EC0189
:103CD0006D8B70E080E090E00E94FF342E813F8188
:103CE000488559850E945B3620E030E04FE753E479
:103CF0000E9435346E8B7F8B888F998FDF91CF91A7
:103D000008957F928F929F92AF92BF92CF92DF924F
:103D1000EF92FF920F931F93CF93DF93EC01762ED8
:103D2000A42EB22E8C849D846401E12CF12C8D890B
:103D3000882301F16A8570E080E090E00E94FF3402
:103D40008B019C014E895F89688D798D872D0E943A
:103D5000F21D282F30E02F5F3F4FD4010E94FE3725
:103D60006B017C010B8404C0F694E794D794C7944C
:103D70000A94D2F78889882301F16C8170E080E091
:103D800090E00E94FF348B019C0149895A896B891C
:103D90007C898A2D0E94F21DA82FB0E01196A70100
:103DA00096010E940D386B017C010D8004C0F694D1
:103DB000E794D794C7940A94D2F7BB2001F16A859F
:103DC00070E080E090E00E94FF348B019C014E8106
:103DD0005F81688579858B2D0E94F21DA82FB0E048
:103DE0001196A70196010E940D386B017C010B848E
:103DF00004C0F694E794D794C7940A94D2F7DF8668
:103E0000CE86DF91CF911F910F91FF90EF90DF90C1
:103E1000CF90BF90AF909F908F907F900895FC01BE
:103E200088EB91E09183808393838283958384835D
:103E300016821086178212861186148613860895BC
:103E40000895CF93DF93EC01AF81B885109719F4F3
:103E50001A86198622C08E818823E9F0488159810B
:103E60008A819B81EC81FD818417950738F49A0142
:103E70002E1B3F0B0E94FE379F0106C09F01241B93
:103E8000350B0E94FE379A0140E050E00E94B737A0
:103E90003A87298702C0BA87A987DF91CF91089511
:103EA000FC01808191816817790771F08481958187
:103EB0006817790749F0718360839383828314863E
:103EC0001386CF010C94211F0895FC0166830C9486
:103ED000211FFC01708767830C94211F0F931F9390
:103EE000CF93DF93EC018C819D81288139818217EA
:103EF000930709F1E985FA853097D1F0AB85BC8548
:103F0000A60FB11DBC87AB87EA17FB0788F00A81B3
:103F10001B8140E050E0201B310B410951090E94F8
:103F20000D389F0140E050E00E94D937200F311F2B
:103F30003D832C8307C02A813B812817390711F064
:103F40009B838A83DF91CF911F910F910895FC018C
:103F500082E0808381E090E09283818384E08383A8
:103F6000148208950895DC016C9370E0FB01EE0F5C
:103F7000FF1FE850F84F8591949112969C938E9371
:103F80001197FB01E851F84F649113966C930895D3
:103F9000CF93DF93EC019B01A981BA810E94FE3788
:103FA0000B8004C096958795779567950A94D2F70C
:103FB0006F73EC8180E4E89FF0011124E60FF11D9E
:103FC000E851FC4FE491ED838E81882311F0E19557
:103FD000ED83DF91CF910895FC011082118212824E
:103FE000138240E05DE760E070E0448355836683C0
:103FF00077831186108608950895FC01108211823E
:10400000128213821186108608954115510580E1B0
:104010006807710570F44115510594E06907710551
:1040200050F481E0411551056140710528F480E0AC
:10403000089583E0089582E00895CF92DF92EF9291
:10404000FF92CF93DF93EC016A017B014C835D8388
:104050006E837F830E940520E82FA701960104C08C
:1040600056954795379527958A95D2F7688579852E
:1040700080E090E00E2E04C0969587957795679521
:104080000A94D2F70E94873720E130E042E0E49FB3
:1040900020193109112404C0969587957795679565
:1040A0002A95D2F7688379838A839B83DF91CF91A6
:1040B000FF90EF90DF90CF9008954115510580E17A
:1040C00068077105C8F44115510588E06807710556
:1040D000C8F44115510584E06807710578F441156D
:1040E000510582E06807710558F44115510561409A
:1040F000710540F081E0089585E0089583E008951A
:1041000082E0089584E008954F925F926F927F92CB
:104110008F929F92AF92BF92CF92DF92EF92FF92D7
:10412000CF93DF93EC0188819981AA81BB81860FAF
:10413000911DA11DB11D88839983AA83BB83CC8067
:10414000DD80EE80FF808C159D05AE05BF0540F03B
:104150008C199D09AE09BF0988839983AA83BB8303
:1041600088809980AA80BB80B501A401CE010E94FD
:104170005D20282F60E170E0681B71092401350182
:1041800004C0440C551C661C771C6A95D2F7C30109
:10419000B2013601470104C09694879477946794DE
:1041A0002A95D2F7A40193010E94B737398728874F
:1041B000DF91CF91FF90EF90DF90CF90BF90AF90C5
:1041C0009F908F907F906F905F904F900895FC012B
:1041D00088E7808381E0828340E050E060E87FE30D
:1041E000428B538B648B758B08950895DC01129676
:1041F0006C931297462F50E04550510947305105B6
:10420000C8F44F5A5F4FFA010C94F83747E25DE16A
:104210006EE973E409C049EA5EE963EE7FE304C036
:1042200040E053EF63EB70E41E964D935D936D9306
:104230007C9351979A961D921D921D921C929D9768
:104240009E961D921D921D921C92D197D2961D9200
:104250001D921D921C92D597D6961D921D921D926D
:104260001C92D9970895FC01638312A613A614A685
:1042700015A616A617A610AA11AA12AA13AA14AA5E
:1042800015AA16AA17AA10AE11AE0895CF93DF9300
:10429000EC016C8370E080E090E00E94FF3428E144
:1042A00032E741EB5FE30E945B3620E030E04FE70E
:1042B00053E40E9435346D837E838F839887DF912A
:1042C000CF910895CF93DF93EC01698770E080E090
:1042D00090E00E94FF3428E132E741EB5FE30E9467
:1042E0005B3620E030E04FE753E40E9435346A87C4
:1042F0007B878C879D87DF91CF9108952F923F9286
:104300004F925F926F927F928F929F92AF92BF92E5
:10431000CF92DF92EF92FF920F931F93CF93DF9391
:10432000CDB7DEB76C970FB6F894DEBF0FBECDBF2A
:104330001C01E62F29013A01E982FA820B831C83D2
:1043400069A97AA98BA99CA90E2F10E0F8013197D1
:10435000EF30F10508F03AC5E85AFF4F0C94F837F2
:104360009B01AC010E94CE33A30192010E945B36F7
:104370004B015C010E94DE3629813A814B815C81D0
:104380000E94353420E030E040E05FE30E945B367D
:104390006B017C01C501B4010E9432344B015C0108
:1043A0009B01AC0160E070E080E89FE30E94CD33A8
:1043B0002B013C0120E030E040E05FE30E945B36EF
:1043C000D1015E966D937D938D939C93919739C0A7
:1043D0009B01AC010E94CE33A30192010E945B3687
:1043E0004B015C010E94DE3629813A814B815C8160
:1043F0000E94353420E030E040E05FE30E945B360D
:104400006B017C01C501B4010E9432344B015C0197
:1044100020E030E040E85FE30E94CE332B013C0116
:1044200020E030E040E05FE30E945B36D1015E9621
:104430006D937D938D939C93919777FA709477F811
:104440007094F10142A253A264A275A296966D9354
:104450007D938D939C93999720E030E040E85FE353
:10446000C701B6010E94CE33F101628B738B848B3E
:10447000958B20E030E040E050ECC501B4010E9493
:104480005B36D10156966D937D938D939C9359978E
:10449000A701960160E070E080E89FE30E94CD33C1
:1044A000F101628F738F848F958F90C49B01AC0153
:1044B0000E94CE33A30192010E945B364B015C0146
:1044C0000E94DE366B017C0129813A814B815C813F
:1044D0000E94353420E030E040E05FE30E945B362C
:1044E0002B013C01C501B4010E9432344B015C0137
:1044F00020E030E040E05FE3C701B6010E945B3698
:10450000D1015E966D937D938D939C939197F1016C
:1045100012A213A214A215A2DC01CB01B05886A3EB
:1045200097A3A0A7B1A720E030E040E85FE3C30174
:10453000B2010E94CE33D10152966D937D938D933B
:104540009C93559720E030E040E050ECC501B40169
:104550000E945B36F101668B778B808F918FA30170
:104560009201D1C09B01AC010E94CE33A301920104
:104570000E945B364B015C010E94DE3629813A8144
:104580004B815C810E94353420E030E040E05FE305
:104590000E945B366B017C01C501B4010E9432347C
:1045A000412C512C20E8622E2FE3722EF101468E11
:1045B000578E60A271A220E030E040E050EC0E94F3
:1045C0005B364B015C01D10192966D937D938D9387
:1045D0009C939597F10146A257A260A671A6A301EC
:1045E0009201C701B6010E94CE33D10152966D935C
:1045F0007D938D939C935597F101868A978AA08E1F
:10460000B18EA7019601C301B20125C39B01AC0184
:104610000E94CE33A30192010E945B362B013C0124
:104620000E94DE3629813A814B815C810E943534BB
:1046300020E030E040E05FE30E945B3669837A83EC
:104640008B839C83C301B2010E94323469877A87CD
:104650008B879C87A601950169817A818B819C81DA
:104660000E945B362B013C0120E030E040E85FE334
:104670000E94CE33F101668F778F80A391A320E053
:1046800030E040E050EC69857A858B859C850E94FE
:104690005B3669877A878B879C87D10192966D9369
:1046A0007D938D939C939597A301920160E070E0B8
:1046B00080E89FE30E94CD33F10166A377A380A732
:1046C00091A7A601950169817A818B819C810E94C5
:1046D00035344B015C0120E030E040E85FE30E94AC
:1046E000CE33D10152966D937D938D939C935597C4
:1046F00089859A85AB85BC85F101868B978BA08FC8
:10470000B18FA501940160E070E080E89FE3A3C24F
:104710009B01AC010E94CE33A30192010E945B3643
:104720009B01AC01298F3A8F4B8F5C8F0E943234F2
:104730006D837E838F839887C601B5010E94E8361A
:104740002B013C01298D3A8D4B8D5C8DCA01B9013D
:104750000E94DE36698B7A8B8B8B9C8B20E030E05D
:1047600040E85FE3C601B5010E94CD3369877A87CF
:104770008B879C872D813E814F8158850E945B36B7
:104780006D8B7E8B8F8B988F20E030E040E85FE36D
:10479000C601B5010E94CE336D877E878F87988BC7
:1047A0002D813E814F8158850E945B366D837E83CB
:1047B0008F839887A3019201C301B2010E94CE3377
:1047C0002B013C0129813A814B815C8169897A897D
:1047D0008B899C890E94353420E030E040E05FE323
:1047E0000E945B369B01AC01C301B2010E945B36A3
:1047F0002B013C012D893E894F89588D6D857E8521
:104800008F8598890E94CD3369837A838B839C83BB
:10481000A30192010E94CE339B01AC01C601B501F8
:104820000E945B36F101668F778F80A391A3A6016A
:104830009501C601B5010E94CE33698B7A8B8B8BB3
:104840009C8B2D813E814F81588569857A858B852A
:104850009C850E94CD339B01AC0169897A898B8943
:104860009C890E945B36D10192966D937D938D93C6
:104870009C939597A301920169817A818B819C8198
:104880000E94CD339B01AC01C601B5010E945B368D
:10489000F10166A377A380A791A72D893E894F894F
:1048A000588D6D857E858F8598890E94CE334B010A
:1048B0005C01A30192010E94CE33D10152966D9307
:1048C0007D938D939C9355972D813E814F81588583
:1048D00069857A858B859C850E94CE3320E030E007
:1048E00040E050EC0E945B36F101668B778B808F45
:1048F000918FA3019201F7C09B01AC010E94CE33BE
:10490000A30192010E945B362B013C010E943234CC
:104910006D877E878F87988BC601B5010E94E83628
:104920006D837E838F839887C301B2010E94DE3638
:10493000698B7A8B8B8B9C8B20E030E040E85FE3C7
:10494000C601B5010E94CD332B013C012D853E856A
:104950004F8558890E945B366D8B7E8B8F8B988F2D
:1049600020E030E040E85FE3C601B5010E94CE33AD
:1049700069877A878B879C872D853E854F855889E7
:104980000E945B366D877E878F87988B2D813E8155
:104990004F815885CA01B9010E94CE336D837E8351
:1049A0008F83988729813A814B815C8169897A89D3
:1049B0008B899C890E94353420E030E040E05FE341
:1049C0000E945B369B01AC016D817E818F81988551
:1049D0000E945B3669837A838B839C832D893E8911
:1049E0004F89588D69857A858B859C850E94CE3349
:1049F0006D837E838F83988729813A814B815C8187
:104A00000E94CE339B01AC01C601B5010E945B360A
:104A1000F101668F778F80A391A320E030E040E022
:104A200050ECC601B5010E945B36698B7A8B8B8B8B
:104A30009C8B2D853E854F855889C301B2010E940C
:104A4000CE339B01AC0169897A898B899C890E944C
:104A50005B36D10192966D937D938D939C93959740
:104A600029813A814B815C816D817E818F8198851E
:104A70000E94CD339B01AC01C601B5010E945B369B
:104A8000F10166A377A380A791A72D893E894F895D
:104A9000588D69857A858B859C850E94CD334B0125
:104AA0005C0129813A814B815C810E94CE33D10126
:104AB00052966D937D938D939C9355972D853E854E
:104AC0004F855889C301B2010E94CD339B01AC01CF
:104AD0000E94CE33F101668B778B808F918F298175
:104AE0003A814B815C81C501B401B5C09B01AC0129
:104AF000C301B2010E945B360E9426374B015C0164
:104B00009B01AC010E945B366B017C01F10166A345
:104B100077A380A791A7D1015E966D937D938D9326
:104B20009C9391979B01AC010E94CE33F10162A34B
:104B300073A384A395A323EF34E045EB5FE3C501A2
:104B4000B4010E945B364B015C019B01AC01C701C3
:104B5000B6010E94CE3320E030E040E85FE30E94DF
:104B6000CE33D10152966D937D938D939C9355973F
:104B700020E030E040E85FE3C701B6010E94CD339A
:104B80009B01AC010E94CE33F101668B778B808F45
:104B9000918FA5019401C701B6010E94CD3320E099
:104BA00030E040E85FE309C19B01AC01C301B20101
:104BB0000E945B360E9426374B015C019B01AC01D1
:104BC0000E945B3620E030E040E85FE30E94CE3395
:104BD0006B017C0180E090E0A0E8BFE3F101868FEB
:104BE000978FA0A3B1A386A397A3A0A7B1A780E0A6
:104BF00090E0A0E0B0EC82A393A3A4A3B5A323EF1D
:104C000034E045EB5FE3C501B4010E945B364B0124
:104C10005C019B01AC01C701B6010E94CE33D101FA
:104C200052966D937D938D939C93559720E030E041
:104C300040E050E4C701B6010E94CD339B01AC01B6
:104C40000E94CE33F101668B778B808F918FA50107
:104C50009401C701B6010E94CD33B1C00E945B36FA
:104C60000E9426376B017C0120E030E040E450E4F4
:104C70000E945B364B015C01A70196010E945B36E6
:104C80006B017C01F10166A377A380A791A7D101F5
:104C90005E966D937D938D939C9391979B01AC0150
:104CA0000E94CE332B013C01F10162A373A384A3C4
:104CB00095A320E030E040E85FE3C501B4010E9425
:104CC000CE33A70196010E94CE33D10152966D9347
:104CD0007D938D939C93559720E030E040E050E425
:104CE000C301B2010E94CD33F101668B778B808FB7
:104CF000918FA501940160E070E080E89FE30E943D
:104D0000CD33A701960159C00E945B360E94263719
:104D10004B015C019B01AC010E945B366B017C0185
:104D200080E090E0A0E4B0E4F10186A397A3A0A7FF
:104D3000B1A7868F978FA0A3B1A380E090E0A0ECED
:104D4000B0EC82A393A3A4A3B5A320E030E040E499
:104D500050E4C501B4010E945B364B015C019B012C
:104D6000AC01C701B6010E94CE3320E030E040E440
:104D700050E40E94CE33D10152966D937D938D9372
:104D80009C935597A7019601C701B6010E94CE33A7
:104D900020E030E040EC50E40E94CD33F101668B1E
:104DA000778B808F918FA5019401C701B6010E9476
:104DB000CD3320E030E040E450E40E94CE33D10116
:104DC0005A966D937D938D939C935D97F101C28864
:104DD000D388E488F588A7019601668D778D80A138
:104DE00091A10E943534D1015E966D937D938D9390
:104DF0009C939197A701960192966D917D918D91CB
:104E00009C9195970E943534F10162A373A384A30A
:104E100095A3A701960166A177A180A591A50E94FF
:104E20003534D10196966D937D938D939C9399978C
:104E3000A701960156966D917D918D919C91599700
:104E40000E943534F101668B778B808F918FA7019B
:104E50009601628D738D848D958D0E943534D101BC
:104E60005A966D937D938D939C935D976C960FB638
:104E7000F894DEBF0FBECDBFDF91CF911F910F9190
:104E8000FF90EF90DF90CF90BF90AF909F908F906A
:104E90007F906F905F904F903F902F9008952F924A
:104EA0003F924F925F926F927F928F929F92AF92BA
:104EB000BF92CF92DF92EF92FF920F931F93CF9307
:104EC000DF93CDB7DEB72E970FB6F894DEBF0FBED7
:104ED000CDBF9E878D874D835E836F837887F22E4B
:104EE000202EDC0112963C90332009F46FC02A0179
:104EF0003B017694679457944794DB01CA01F6E02E
:104F0000B695A79597958795FA95D1F7481A590AB6
:104F10006A0A7B0AED85FE85A081B0E01196A301A7
:104F200092010E941838872E982EA92EBB248185C5
:104F30008823D9F0428553856485758500E010E0AB
:104F400020E832E48F2D0E94F21DA82FB0E01196C8
:104F5000A50194010E940D384B015C0146E0B69416
:104F6000A794979487944A95D1F7AD85BE851496FA
:104F70008C9114978823E9F015964D915D916D9170
:104F80007C91189700E010E020E832E4822D0E9426
:104F9000F21DA82FB0E01196A50194010E940D38D2
:104FA0004B015C0136E0B694A794979487943A95A8
:104FB000D1F789829A82AB82BC82481459046A0470
:104FC0007B0420F449825A826B827C82ED85FE85C7
:104FD000A684B784C088D188618170E080E090E0C9
:104FE0000E94FF342DE93CE94CE95DE30E945B3609
:104FF00020E030E040E05FE30E94CE332B013C0133
:1050000069817A818B819C810E94FF3469837A83D4
:105010008B839C836D817E818F8198850E94FF3474
:105020009B01AC016BED7FE089E490E40E94353494
:105030009F938F937F936F938301720129813A81AC
:105040004B815C81632D8D859E850E947E210F9012
:105050000F900F900F902E960FB6F894DEBF0FBEF4
:10506000CDBFDF91CF911F910F91FF90EF90DF9017
:10507000CF90BF90AF909F908F907F906F905F90F8
:105080004F903F902F9008954F925F926F927F9232
:105090008F929F92AF92BF92CF92DF92EF92FF9248
:1050A0000F931F93CF93DF9300D000D0CDB7DEB71F
:1050B0008C016A017B01DC019A968D909D90AD90E8
:1050C000BC909D97D2962D913D914D915C91D59735
:1050D00029833A834B835C835E962D913D914D915C
:1050E0005C919197C701B6010E945B362B013C0190
:1050F000F80122A133A144A155A1C501B4010E9428
:105100005B369B01AC01C301B2010E94CE332B017F
:105110003C01D8019E962D913D914D915C91D19786
:1051200096966D917D918D919C9199970E945B3699
:105130009B01AC01C301B2010E94CE332B013C01A3
:10514000F80126893789408D518D69817A818B815B
:105150009C810E945B369B01AC01C301B2010E949D
:10516000CD332B013C01D801D6962D913D914D9127
:105170005C91D9975A966D917D918D919C915D9797
:105180000E945B369B01AC01C301B2010E94CD338A
:10519000F80186A697A6A0AAB1AAC2A6D3A6E4A69D
:1051A000F5A629813A814B815C8126AB37AB40AFB4
:1051B00051AF62AB73AB84AB95AB0F900F900F9078
:1051C0000F90DF91CF911F910F91FF90EF90DF90A3
:1051D000CF90BF90AF909F908F907F906F905F9097
:1051E0004F900895BF92CF92DF92EF92FF920F936C
:1051F0001F93CF93DF938C01EB01FC018281882305
:1052000009F485C0C12CD12C8881F8012381D816DE
:1052100008F044C0ED2CF12C89819A81FC01EE0D3F
:10522000FF1D6081222361F0772767FD70957595DA
:10523000679575956795882777FD8095982F05C0A8
:10524000772767FD7095872F972F0E940135AB0157
:10525000BC01C8010E9444280E94CE346038710508
:1052600034F46038FFEF7F071CF460E801C06FE79B
:10527000E981FA81EE0DFF1D6083F80183818823A7
:1052800059F0772767FD709577FF03C07195619599
:105290007109C6160CF4C62ED394B6CF2223B9F1E9
:1052A0006C2D772767FD7095872F972F0E9401350A
:1052B0009B01AC0160E070E080E093E40E94353433
:1052C0006B017C01B12C8881B81608F509811A811F
:1052D0000B0D111DF8016081772767FD7095872FF1
:1052E000972F0E940135A70196010E945B360E940C
:1052F000CE346038710534F46038FFEF7F071CF45A
:1053000060E801C06FE7F8016083B394DCCFDF9100
:10531000CF911F910F91FF90EF90DF90CF90BF90B2
:105320000895FC0110822FEF218308950895CF93F3
:10533000EFE7F0E0E21BF10927FDF395DC012C918A
:1053400030E02F5F3F4FE29FD001E39FB00DF29F0F
:10535000B00D1124EB2FFF27552747FD509557FF20
:1053600003C0519541955109DC0111962C9130E013
:105370002F5F3F4F429FC001439F900D529F900D62
:105380001124880F892F881F990B9195C0E02FEF6A
:1053900030E02E1B3F0B9927FB014081C417D0F44E
:1053A000DB011196ED91FC911297EC0FF11D4081FC
:1053B0004203D001439FB00D1124AB2FBB0FBB0B99
:1053C0008A9FA0018B9F500D9A9F500D11245083EE
:1053D000CF5FE2CFCF910895FC018FEF9FE79183DC
:1053E0008083938382839583848384E791E097838A
:1053F0008683118610861286138614861586089574
:105400000895FC017183608321E025870895FC01E4
:105410007383628321E025870895FC01758364838B
:1054200021E025870895FC017783668321E02587A5
:105430000895FC01628721E025870895DC01199613
:105440008C911997E82FF82FFF0FFF0BF7FF03C080
:10545000F195E195F109E85EF74F84911A969C91D8
:10546000911181950895FC0181E08487858783856A
:10547000882311F011861086089524E0FC0124870A
:1054800021E0258708950F931F93FC0185858823CC
:1054900009F46CC08485823071F130F4882309F4FA
:1054A0005DC0813041F062C0833009F43FC0843078
:1054B00009F441C05BC020813181A62FB0E00E9479
:1054C000FE3740855185AFEFBFE78D01041B150BFB
:1054D000222717FD2095322F601771078207930747
:1054E00028F082E08487B187A08740C0640F751FD1
:1054F000718760873BC022813381A62FB0E00E9474
:10550000FE3740855185A481B5818A010A1B1B0B9A
:10551000222717FD2095322F601771078207930706
:1055200008F183E08487B187A0871AC084819581C0
:105530009187808715C026813781A62FB0E00E9411
:10554000FE37408551858A01222717FD2095322F8D
:10555000601771078207930728F01486118610865A
:10556000158604C0461B570B518740871F910F912A
:105570000895CF93DF93EC0188E0E7E1F1E0DE01ED
:1055800001900D928A95E1F718861986FE013A96E8
:105590008CE0DF011D928A95E9F78FEF8A87888B6F
:1055A0007F8B6E8BDF91CF910895FC01868997895F
:1055B000009711F00C94C9330895A62FB0E0B5956B
:1055C000A795362F3170E32FF0E0E856F74FE491BE
:1055D000A80FB91F2E2F20955C912523330F330F71
:1055E000542F01C0550F3A95EAF7352F3E23232B50
:1055F0002C93DC0156968D919C915797009739F02A
:10560000DC01ED91FC910190F081E02D0994089569
:10561000262F2170E22FF0E0E856F74FE49170E07A
:1056200075956795860F971FDC018C91E8238E2F67
:1056300090E0220F220F02C0959587952A95E2F7F8
:1056400008950F931F93E62FF0E053E0F595E7954B
:105650005A95E1F7562F28EFE29F500D1124E80FDD
:10566000F91F01E010E020E030E004C0000F111F3E
:10567000221F331F5A95D2F7442321F05085502B17
:10568000508704C00095208502230087DC015696D0
:105690008D919C915797009749F0DC01ED91FC9119
:1056A0000280F381E02D1F910F9109941F910F91BA
:1056B0000895262F30E073E0359527957A95E1F728
:1056C000820F931FFC01808590E0F8EF2F9F600D03
:1056D000112402C0959587956A95E2F78170089527
:1056E000FC0136E0639FE00DF11D1124E40FF11D74
:1056F0002287DC0156968D919C915797009739F03F
:10570000DC01ED91FC910480F581E02D0994089570
:1057100026E0629F800D911D1124840F911DFC01D4
:1057200082850895EF92FF920F931F93CF93DF939B
:10573000CDB7DEB766970FB6F894DEBF0FBECDBF0C
:10574000DC0186E1689FB00111249D01FE013196C4
:105750007F01AE01475F5F4FCF01F90111919F01BA
:10576000F70111937F01E417F507B9F78F0128E0DE
:1057700030E0AD01420F531FFA014281F80141931D
:105780008F012F5F3F4F2E30310599F78E01015F5A
:105790001F4FAD01420F531FFA014281F80141939F
:1057A0008F012F5F3F4F2431310599F718962C91C7
:1057B00018972D8B19962C912E8B46E150E00E9464
:1057C000700B66960FB6F894DEBF0FBECDBFDF91AB
:1057D000CF911F910F91FF90EF9008956F927F925C
:1057E0008F929F92AF92BF92CF92DF92EF92FF92F1
:1057F0000F931F93CF93DF93CDB7DEB766970FB6A6
:10580000F894DEBF0FBECDBF8C0186E1689FB0016A
:10581000112446E150E0CE0101960E94720BFE0178
:1058200031967F01712CF8E98F2EF8E09F2EA9E9BF
:10583000AA2EA8E0BA2E6701F4014491672C660CE9
:10584000F70181917F014823662DC8010E94DD2A5E
:10585000F5014491F6018081482350E0E4E055953C
:105860004795EA95E1F761E0660DC8010E94DD2ADF
:105870007394F8E07F12DFCF7E0189E0E80EF11C1F
:10588000D12CF70121917F014D2D60E0C8010E94CC
:10589000702BD394F6E0DF12F4CF7E018FE0E80E98
:1058A000F11CD12CF70121917F014D2D61E0C80140
:1058B0000E94702BD394F6E0DF12F4CFE12CF12C90
:1058C0004D8950E00E2C02C0559547950A94E2F799
:1058D00041706E2DC8010E94212B8FEFE81AF80A43
:1058E00098E0E916F10461F7E12CF12C4E8950E0C3
:1058F0000E2C02C0559547950A94E2F7417068E076
:105900006E0DC8010E94212BEFEFEE1AFE0AF8E09F
:10591000EF16F10459F766960FB6F894DEBF0FBE86
:10592000CDBFDF91CF911F910F91FF90EF90DF904E
:10593000CF90BF90AF909F908F907F906F90089581
:10594000603110F40C94082B663130F46051FC0186
:10595000E60FF11D828507C06C3138F46651FC01F9
:10596000E60FF11D8089869508956C510C94592B92
:10597000603110F40C94DD2A663130F4242F220FAC
:1059800040EF460F60E007C06C3138F4242F220F3F
:105990004AEE460F61E00C94702B21E0411101C0EA
:1059A00020E06C51422F0C94212B0F931F93CF9327
:1059B000DF93EC01CB010E94AE3910E00E94A939BF
:1059C000492F459545954595612FCE010E94DD2AC9
:1059D0008BEF810F843078F00E94A939990F880BE2
:1059E000990F982F881F41E0892B09F440E0612F1F
:1059F000CE010E94212B1F5F1F3001F700E010E055
:105A00000E94A9399C01220F232F221F330B412F03
:105A1000602FCE010E94702B1F5F163089F70F5F39
:105A2000023069F7DF91CF911F910F910895CF93C5
:105A3000DF93FC01C681D781209741F0CE010E94FF
:105A40006E2ECE01DF91CF910C94C933DF91CF91AF
:105A50000895FF920F931F93CF93DF93EC018B0177
:105A60008B81882371F06E817F816115710509F446
:105A700041C0C801DF91CF911F910F91FF900C940D
:105A8000762E89818F3019F48A81882311F080E085
:105A900014C0F12C8881F81668F50E94A939D80144
:105AA0001196ED91FC911297EF0DF11D880F892F42
:105AB000881F990B8083F394EDCF98818917D0F4D8
:105AC0009A81E981F0E0B0E19B9FE00DF11D112486
:105AD00095E0EE0FFF1F9A95E1F7E80FF11DE656EE
